:100000000C945D000C9485000C9485000C94850084
:100010000C9485000C9485000C9485000C9485004C
:100020000C9485000C9485000C9485000C94570565
:100030000C9485000C9485000C9485000C9485002C
:100040000C94B5040C9485000C9425050C94FF04C5
:100050000C9485000C9485000C9485000C9485000C
:100060000C9485000C94850000000008000201003B
:100070000003040700000000000000000000000072
:10008000250028002B0000000000240027002A0083
:10009000040404040404040402020202020203032E
:1000A0000303030301020408102040800102040836
:1000B0001020010204081020130611241FBECFEFE8
:1000C000D8E0DEBFCDBF11E0A0E0B1E0ECE5F9E1A2
:1000D00002C005900D92AA36B107D9F722E0AAE630
:1000E000B1E001C01D92A034B207E1F710E0CDE508
:1000F000D0E004C02197FE010E94730ACC35D107DD
:10010000C9F70E948A060C94AC0C0C94000090E095
:10011000FC01EC55FF4F249180579F4FFC018491C7
:10012000882399F090E0880F991FFC01EA57FF4F50
:10013000A591B491FC01E458FF4F859194918FB73C
:10014000F894EC91E22BEC938FBF089590E0FC01C2
:10015000E859FF4F2491FC01EC55FF4F3491FC010D
:10016000E057FF4FE491EE23C9F0222339F023300A
:1001700001F1A8F4213019F1223029F1F0E0EE0F5D
:10018000FF1FE458FF4FA591B4918FB7F894EC91FD
:10019000611126C030953E233C938FBF08952730D0
:1001A000A9F02830C9F0243049F7809180008F7D74
:1001B00003C0809180008F7780938000DFCF84B56B
:1001C0008F7784BDDBCF84B58F7DFBCF8091B0006E
:1001D0008F778093B000D2CF8091B0008F7DF9CF20
:1001E0003E2BDACF3FB7F89480916C0190916D016E
:1001F000A0916E01B0916F0126B5A89B05C02F3F5D
:1002000019F00196A11DB11D3FBFBA2FA92F982F3C
:100210008827BC01CD01620F711D811D911D42E037
:10022000660F771F881F991F4A95D1F70895AF92DF
:10023000BF92CF92DF92EF92FF920F931F93CF93D3
:10024000DF936C017B018B01040F151FEB015E0135
:10025000AE18BF08C017D10759F06991D601ED91CA
:10026000FC910190F081E02DC6010995892B79F769
:10027000C501DF91CF911F910F91FF90EF90DF901B
:10028000CF90BF90AF900895FC01538D448D252FE2
:1002900030E0842F90E0821B930B541710F0CF9620
:1002A000089501970895FC01918D828D981761F052
:1002B000A28DAE0FBF2FB11D5D968C91928D9F5F69
:1002C0009F73928F90E008958FEF9FEF08952FB75F
:1002D000F8948091700190917101A0917201B09198
:1002E00073012FBF80937C0190937D01A0937E01C9
:1002F000B0937F0184E791E00E94530197FF26C0ED
:100300002FB7F8948091700190917101A0917201C2
:10031000B09173012FBF40917C0150917D0160919C
:100320007E0170917F01841B950BA60BB70B40914A
:1003300078015091790160917A0170917B01841765
:100340009507A607B707B0F28FEF9FEF0895FC015E
:10035000918D828D981731F0828DE80FF11D858D7A
:1003600090E008958FEF9FEF0895FC01918D228D0D
:10037000892F90E0805C9F4F821B91098F73992792
:10038000089584E791E00E94B50121E0892B09F4EA
:1003900020E0822F089580E090E0892B29F00E94D0
:1003A000C10181110C9400000895FC01A48DA80FD7
:1003B000B92FB11DA35ABF4F2C91848D90E00196A7
:1003C0008F739927848FA689B7892C93A089B189C7
:1003D0008C91837080648C93938D848D981306C068
:1003E0000288F389E02D80818F7D80830895EF92CC
:1003F000FF920F931F93CF93DF93EC0181E0888FDF
:100400009B8D8C8D98131AC0E889F989808185FFAE
:1004100015C09FB7F894EE89FF896083E889F98950
:1004200080818370806480839FBF81E090E0DF9152
:10043000CF911F910F91FF90EF900895F62E0B8DA5
:1004400010E00F5F1F4F0F731127E02E8C8D8E1160
:100450000CC00FB607FCFACFE889F989808185FFC7
:10046000F5CFCE010E94D501F1CFEB8DEC0FFD2F22
:10047000F11DE35AFF4FF0829FB7F8940B8FEA8982
:10048000FB8980818062CFCFCF93DF93EC01888D91
:100490008823B9F0AA89BB89E889F9898C9185FDFF
:1004A00003C0808186FD0DC00FB607FCF7CF8C918D
:1004B00085FFF2CF808185FFEDCFCE010E94D5016F
:1004C000E9CFDF91CF910895CF92DF92EF92FF9223
:1004D000CF93DF93EC01603282E07807CCF5653B87
:1004E000710514F064EB70E0898128E830E0281B86
:1004F000310987FD3395220F331F220F331F690106
:10050000330FEE08FF088A8128E532E0281B310905
:1005100087FD3395220F331F220F331F032E000C4C
:10052000440B550B2C193D094E095F09DB0177FF80
:1005300002C0B0E0A0E00E94F00924EB30E040E00F
:1005400050E00E94C609C20ED31EE41EF51EB6017D
:10055000E881EC3070F5298188E890E0821B9109F0
:1005600027FD9395880F991F880F991F68177907A2
:100570007CF02A8188E592E0821B910927FD939502
:10058000880F991F880F991F681779070CF4CB0102
:100590000297880F991F4FB7F8942E2F30E0F9017A
:1005A000EE0FFF1FE20FF31FEF5EFD4F928381837B
:1005B0004FBFDF91CF91FF90EF90DF90CF900895E4
:1005C000892B79F41092800082E080938100109250
:1005D000850010928400B19A80916F0082608093B0
:1005E0006F00089524EB30E0DC010E946C0A24EFD8
:1005F00031E040E050E00E94C609CA01B9010E9402
:1006000062090E94790ACB01089524EB30E0DC01F5
:100610000E946C0A24EF31E040E050E00E94C609DD
:10062000CA01B9010E9462090E94790ACB010895AA
:1006300042E050E068E171E084E791E00C9417013A
:10064000CF93DF93FC0101900020E9F73197AF01D0
:10065000481B590BBC0184E791E00E941701EC0193
:100660000E9418038C0F9D1FDF91CF910895CF93A7
:10067000DF93FC01448155816081718184E791E0C1
:100680000E941701EC010E9418038C0F9D1FDF913F
:10069000CF910895CF93DF93FC0124813581232BE3
:1006A00079F0C081D181062E000C770BCE010E941B
:1006B0009A0C009729F08C1B9D0BDF91CF91089528
:1006C0008FEF9FEFFACFCF93DF93EC018881998171
:1006D000009711F00E944B0B198218821D821C8218
:1006E0001B821A82DF91CF910895FC018081918154
:1006F000009711F00C944B0B08950F931F93CF9319
:10070000DF93EC0188819981009759F02A813B8120
:100710002617370730F081E0DF91CF911F910F91BD
:1007200008958B016F5F7F4F0E94D40B009759F0A3
:10073000998388831B830A832C813D81232B59F75E
:10074000FC011082E8CF80E0E7CFEF92FF920F9399
:100750001F93CF93DF936115710541F480E0DF9122
:10076000CF911F910F91FF90EF9008954115510582
:10077000B1F07B01EC010C811D81040F151FB80144
:100780000E947D03882351F3288139818C819D81CA
:10079000B701820F931F0E94A50C1D830C8381E07B
:1007A000DECFCF93DF93EC0144E050E06BE171E0EA
:1007B0000E94A503811103C0CE010E946303CE01F4
:1007C000DF91CF910895CF93DF93EC01FB0144813A
:1007D0005581608171810E94A503811103C0CE0102
:1007E0000E946303CE01DF91CF910895EF92FF92B3
:1007F0000F931F93CF93DF93EC017B018A01BA0122
:100800000E947D0381110BC0CE010E946303CE01C3
:10081000DF91CF911F910F91FF90EF9008951D836D
:100820000C83B701888199810E94A50CF0CFEF92CB
:10083000FF920F931F93CF93DF93CDB7DEB76297ED
:100840000FB6F894DEBF0FBECDBF8C01CB01F8010F
:100850001182108213821282158214824AE09E0154
:100860002F5F3F4F7901B9010E941609F7010190EE
:100870000020E9F73197AF014E195F09B701C801B0
:100880000E94F60362960FB6F894DEBF0FBECDBF8E
:10089000DF91CF911F910F91FF90EF900895FB0191
:1008A00001900020E9F73197AF01461B570B0C94DC
:1008B000F603AF92BF92CF92DF92EF92FF920F9327
:1008C0001F93CF93DF93EC016B015A017901241739
:1008D000350720F48B2D5901E42EF82E1982188249
:1008E0001B821A821D821C826AE171E0CE010E9485
:1008F0004F04D60114960D911C91A016B10628F54F
:10090000E016F10608F48701D601ED91FC911197EC
:10091000E00FF11FF08010826D917C916A0D7B1DBC
:1009200061157105F1F0FB0101900020E9F73197A5
:10093000AF01461B570BCE010E94F603F6018081E2
:100940009181080F191FD801FC92CE01DF91CF9140
:100950001F910F91FF90EF90DF90CF90BF90AF90DD
:100960000895CE010E946303E9CF1F920F920FB644
:100970000F9211242F933F938F939F93AF93BF9325
:100980008091700190917101A0917201B0917301F9
:1009900030916B0123E0230F2D3758F50196A11DEF
:1009A000B11D20936B018093700190937101A0930E
:1009B0007201B093730180916C0190916D01A091CF
:1009C0006E01B0916F010196A11DB11D80936C0164
:1009D00090936D01A0936E01B0936F01BF91AF91A1
:1009E0009F918F913F912F910F900FBE0F901F906D
:1009F000189526E8230F0296A11DB11DD2CF1F9294
:100A00000F920FB60F9211242F933F934F935F9342
:100A10006F937F938F939F93AF93BF93EF93FF93C6
:100A200084E791E00E94D501FF91EF91BF91AF91D2
:100A30009F918F917F916F915F914F913F912F91F6
:100A40000F900FBE0F901F9018951F920F920FB628
:100A50000F9211242F938F939F93EF93FF93E09125
:100A60008401F09185018081E0918A01F0918B01F0
:100A700082FD1BC0908180918D018F5F8F732091CB
:100A80008E01821741F0E0918D01F0E0EC58FE4FAD
:100A9000958F80938D01FF91EF919F918F912F9171
:100AA0000F900FBE0F901F9018958081F4CF1F926A
:100AB0000F920FB60F9211242F933F934F935F9392
:100AC0006F937F938F939F93AF93BF93CF93DF9356
:100AD000EF93FF9380916A01C0913502D0E087FFC8
:100AE00024C0109285001092840080916A018F5F6B
:100AF00080936A0180916A01082E000C990B8C1773
:100B00009D0724F480916A018C30C4F180918400A7
:100B100090918500049680349C4908F47AC08091B5
:100B2000840090918500049676C080916A01082E19
:100B3000000C990B8C179D07C4F6E0916A018E2F6B
:100B4000EE0F990BFC01EE0FFF1FE80FF91FEF5E90
:100B5000FD4F808186FFC9CFE0916A018E2FEE0F95
:100B6000990BFC01EE0FFF1FE80FF91FEF5EFD4F21
:100B7000808160E08F730E94A600B7CF209184002F
:100B800030918500E0916A018E2FEE0F990BFC01E8
:100B9000EE0FFF1FE80FF91FEF5EFD4F818192817D
:100BA000820F931F9093890080938800E0916A01DF
:100BB0008E2FEE0F990BFC01EE0FFF1FE80FF91FB0
:100BC000EF5EFD4F808186FF11C0E0916A018E2F9C
:100BD000EE0F990BFC01EE0FFF1FE80FF91FEF5E00
:100BE000FD4F808161E08F730E94A600FF91EF911D
:100BF000DF91CF91BF91AF919F918F917F916F9135
:100C00005F914F913F912F910F900FBE0F901F90CA
:100C1000189580E49CE990938900809388008FEF79
:100C200080936A01E3CF109277011092760188EEEB
:100C300093E0A0E0B0E08093780190937901A093D5
:100C40007A01B0937B018AE091E0909375018093E3
:100C5000740185EC90E0909381018093800184EC95
:100C600090E0909383018093820180EC90E09093D8
:100C700085018093840181EC90E0909387018093BB
:100C8000860182EC90E0909389018093880186EC44
:100C900090E090938B0180938A0110928D011092C5
:100CA0008E0110928F0110929001809135028C304C
:100CB00048F591E0980F909335028093390290E0C7
:100CC000FC01EE0FFF1FE80FF91FEF5EFD4F88EBF1
:100CD0009BE092838183809135028C30B8F491E05F
:100CE000980F909335028093360290E0FC01EE0F4E
:100CF000FF1FE80FF91FEF5EFD4F88EB9BE092832B
:100D0000818308958FEF80933902E5CF8FEF809331
:100D100036020895CF93DF93CDB7DEB768970FB64D
:100D2000F894DEBF0FBECDBF789484B5826084BDD9
:100D300084B5816084BD85B5826085BD85B58160DF
:100D400085BD80916E00816080936E00109281005D
:100D50008091810082608093810080918100816018
:100D600080938100809180008160809380008091D9
:100D7000B10084608093B1008091B0008160809365
:100D8000B00080917A00846080937A0080917A002C
:100D9000826080937A0080917A00816080937A00EB
:100DA00080917A00806880937A001092C100E0916F
:100DB0008401F091850182E08083E0918001F091CF
:100DC00081011082E0918201F09183018FEC808398
:100DD00010928C01E0918801F091890186E0808376
:100DE000E0918601F0918701808180618083E091AC
:100DF0008601F0918701808188608083E09186017F
:100E0000F0918701808180688083E0918601F09174
:100E1000870180818F7D8083809139028C3008F03A
:100E200042C089E00E94870080913902282F30E07B
:100E3000F901EE0FFF1FE20FF31FEF5EFD4F9081F0
:100E4000907C9960908310923A0210923B022CE0C1
:100E5000622F0E94600A829FB001112430E020E0DE
:100E6000AB01420F531FFA01EE0FFF1FE40FF51FF6
:100E7000EF5EFD4F908196FD08C02F5F3F4F2C30F5
:100E8000310571F790E00E94E002E09139028E2F67
:100E900090E0FC01EE0FFF1FE80FF91FEF5EFD4F22
:100EA000808180648083809136028C3008F042C05B
:100EB0008AE00E94870080913602282F30E0F901F5
:100EC000EE0FFF1FE20FF31FEF5EFD4F9081907C4E
:100ED0009A60908310923702109238022CE0622FB1
:100EE0000E94600A829FB001112430E020E0AB0133
:100EF000420F531FFA01EE0FFF1FE40FF51FEF5EC5
:100F0000FD4F908196FD08C02F5F3F4F2C3031057B
:100F100071F790E00E94E002E09136028E2F90E09F
:100F2000FC01EE0FFF1FE80FF91FEF5EFD4F808100
:100F3000806480838DE00E94870080E291E00E94BF
:100F400020038FE291E00E94200390E0A92E90E020
:100F5000B92E61E08DE00E94A60084E791E00E9436
:100F6000B501181619060CF002C11C8A1B8A1E8ACC
:100F70001D8A188E1F8A6AE171E0CE0143960E9495
:100F80004F040E94670197FD0FC08A30910561F000
:100F900089831A8241E050E0BE016F5F7F4FCE012E
:100FA00043960E94A503EDCF18861F821A861986E4
:100FB0001C861B866B897C896115710531F04F8910
:100FC000588DCE0107960E94F6036CE2CE0107967B
:100FD0000E944A039C0141E050E0BE01695F7F4FDF
:100FE000CE0101960E94590489819A81009709F4E3
:100FF000F2C00E94EF088B01CE0101960E9475039A
:10100000CE0107960E94750318861F821A861986DC
:101010001C861B866B897C896115710531F04F89AF
:10102000588DCE0107960E94F60369E2CE0107961D
:101030000E944A037C016CE2CE0107960E944A039B
:10104000AC014F5F5F4F9701BE01695F7F4FCE01DB
:1010500001960E94590489819A81412C512C3201B8
:10106000009719F00E94EF082B01CE0101960E9413
:101070007503CE0107960E947503C8010E940503FF
:101080007C01BC0189E392E00E946402C2010E94DB
:10109000F2026C01BC0186E392E00E946402B2019C
:1010A000CE0101960E941704B801CE0107960E9456
:1010B00017041E861D86188A1F861A8A198A62E5F9
:1010C00071E0CE010D960E944F04BE01695F7F4F13
:1010D000CE010D960E94E3030E94D103BE016F5F13
:1010E0007F4F0E94E3030E943703CE010D960E94BA
:1010F0007503CE0107960E947503CE0101960E94EA
:101100007503B601CE0101960E941704B701CE0106
:1011100007960E9417041E861D86188A1F861A8A43
:10112000198A6CE571E0CE010D960E944F04BE0154
:10113000695F7F4FCE010D960E94E3030E94D103A9
:10114000BE016F5F7F4F0E94E3030E943703CE0111
:101150000D960E947503CE0107960E947503CE017D
:1011600001960E947503CE0143960E9475030E946A
:10117000F2002B013C0184E6C82ED12CE12CF12C8D
:101180000E94F2006419750986099709683E734048
:1011900081059105A8F321E0C21AD108E108F10800
:1011A00088EE480E83E0581E611C711CC114D104E6
:1011B000E104F10429F760E08DE00E94A600A1148B
:1011C000B10409F4C6CE0E94C101882309F4C1CE3E
:1011D0000E940000BECE60E070E0CB010CCF1F93F8
:1011E000FC0199278827BC01E89411911032E9F39A
:1011F000193010F01E30C8F31B3251F01D3249F483
:10120000689406C00E942109610F711D811D911D06
:10121000119110531A30B0F33EF49095809570956B
:1012200061957F4F8F4F9F4F1F910895BB274A3085
:1012300031F4992322F4BDE2909581959F4F0C944F
:101240003709592F482F372F262F660F771F881FF2
:10125000991F660F771F881F991F620F731F841FC6
:10126000951F660F771F881F991F0895BB27FB01E5
:101270005527AA27880F991FAA1FA41710F0A41B8F
:1012800083955051B9F7A05DAA3308F0A95DA193E9
:10129000009779F7B111B1931192CB010C945009D9
:1012A000DC01FC01672F71917723E1F7329704C0CD
:1012B0007C916D9370836291AE17BF07C8F3089558
:1012C000E89409C097FB3EF49095809570956195E0
:1012D0007F4F8F4F9F4F9923A9F0F92F96E9BB2796
:1012E0009395F695879577956795B795F111F8CF12
:1012F000FAF4BB0F11F460FF1BC06F5F7F4F8F4F7D
:101300009F4F16C0882311F096E911C0772321F072
:101310009EE8872F762F05C0662371F096E8862F0A
:1013200070E060E02AF09A95660F771F881FDAF761
:10133000880F9695879597F9089557FD9058440F13
:10134000551F59F05F3F71F04795880F97FB991F24
:1013500061F09F3F79F087950895121613061406E1
:10136000551FF2CF4695F1DF08C01616170618066E
:10137000991FF1CF86957105610508940895E89449
:10138000BB2766277727CB0197F90895052E97FB92
:101390001EF400940E94DD0957FD07D00E942F0A19
:1013A00007FC03D04EF40C94DD0950954095309520
:1013B00021953F4F4F4F5F4F0895909580957095C1
:1013C00061957F4F8F4F9F4F08950E94510AA59FAF
:1013D000900DB49F900DA49F800D911D1124089530
:1013E000B7FF0C94E5090E94E509821B930B089551
:1013F0002F923F924F925F926F927F928F929F9225
:10140000AF92BF92CF92DF92EF92FF920F931F9312
:10141000CF93DF93CDB7DEB7CA1BDB0B0FB6F894C3
:10142000DEBF0FBECDBF09942A88398848885F8403
:101430006E847D848C849B84AA84B984C884DF8074
:10144000EE80FD800C811B81AA81B981CE0FD11D58
:101450000FB6F894DEBF0FBECDBFED010895A1E237
:101460001A2EAA1BBB1BFD010DC0AA1FBB1FEE1F1E
:10147000FF1FA217B307E407F50720F0A21BB30B69
:10148000E40BF50B661F771F881F991F1A9469F7E5
:1014900060957095809590959B01AC01BD01CF0141
:1014A0000895A29FB001B39FC001A39F700D811D3D
:1014B0001124911DB29F700D811D1124911D08955D
:1014C000991B79E004C0991F961708F0961B881F96
:1014D0007A95C9F7809508950E94510AB7FF08953B
:1014E000821B930B0895EE0FFF1F0590F491E02DE2
:1014F00009940E94800A6894B1110C94C00908955F
:101500000E94A50988F09F5798F0B92F9927B751E5
:10151000B0F0E1F0660F771F881F991F1AF0BA9597
:10152000C9F714C0B13091F00E94BF09B1E008952D
:101530000C94BF09672F782F8827B85F39F0B93F1F
:10154000CCF3869577956795B395D9F73EF490954A
:101550008095709561957F4F8F4F9F4F08950F93A2
:101560001F93CF93DF938230910510F482E090E0D7
:10157000E0913E02F0913F0230E020E0B0E0A0E0D8
:10158000309799F42115310509F44AC0281B390B0D
:1015900024303105D8F58A819B816115710589F167
:1015A000FB0193838283FE0111C04081518102813E
:1015B000138148175907E0F04817590799F4109715
:1015C00061F012960C93129713961C933296CF01EA
:1015D000DF91CF911F910F91089500933E021093D8
:1015E0003F02F4CF2115310551F04217530738F06F
:1015F000A901DB019A01BD01DF01F801C1CFEF01B3
:10160000F9CF90933F0280933E02CDCFFE01E20FCF
:10161000F31F819391932250310939832883D7CFC7
:1016200020913C0230913D02232B41F42091020194
:101630003091030130933D0220933C022091000140
:10164000309101012115310541F42DB73EB740918C
:10165000040150910501241B350BE0913C02F091EF
:101660003D02E217F307A0F42E1B3F0B28173907A2
:1016700078F0AC014E5F5F4F2417350748F04E0FEE
:101680005F1F50933D0240933C02819391939FCF03
:10169000F0E0E0E09CCFCF93DF930097E9F0FC010E
:1016A000329713821282A0913E02B0913F02ED0167
:1016B00030E020E01097A1F420813181820F931F48
:1016C00020913C0230913D022817390709F061C092
:1016D000F0933D02E0933C02DF91CF910895EA013F
:1016E000CE17DF07E8F54A815B819E014115510560
:1016F000B1F7E901FB83EA8349915991C40FD51FE2
:10170000EC17FD0761F4808191810296840F951F8B
:10171000E90199838883828193819B838A83F0E0A6
:10172000E0E012968D919C9113970097B9F52D9159
:101730003C911197CD010296820F931F20913C029C
:1017400030913D022817390739F6309751F510923C
:101750003F0210923E02B0933D02A0933C02BCCFE8
:10176000D383C28340815181840F951FC817D90745
:1017700061F44E5F5F4F88819981480F591F5183F3
:1017800040838A819B81938382832115310509F0EF
:10179000B0CFF0933F02E0933E029ECFFD01DC010B
:1017A000C0CF13821282D7CFB0E0A0E0EAEDFBE019
:1017B0000C94FA098C01009751F4CB010E94AF0AF6
:1017C0008C01C801CDB7DEB7E0E10C94160AFC012C
:1017D000E60FF71F9C0122503109E217F30708F4C6
:1017E0009DC0D901CD91DC911197C617D70798F00C
:1017F000C530D10530F3CE0104978617970708F35B
:10180000C61BD70B2297C193D1936D937C93CF01C5
:101810000E944B0BD6CF5B01AC1ABD0A4C018C0E5B
:101820009D1EA0913E02B0913F02512C412CF12C03
:10183000E12C109731F580913C0290913D02881582
:10184000990509F05CC04616570608F058C080910B
:10185000000190910101009741F48DB79EB740912E
:10186000040150910501841B950BE817F90708F056
:1018700055C0F0933D02E0933C02F901718360830F
:10188000A0CF8D919C91119712966C901297139600
:101890007C901397A815B90559F56C0142E0C40E68
:1018A000D11CCA14DB0420F1AC014A195B09DA012E
:1018B0001296159780F06282738251834083D9011A
:1018C0006D937C93E114F10471F0D7011396FC93AE
:1018D000EE93129776CF22968C0F9D1FF90191837C
:1018E0008083F301EFCFF0933F02E0933E0269CF94
:1018F0004816590608F42C017D01D3019ACFCB017B
:101900000E94AF0A7C01009749F0AE01B8010E9425
:10191000910CC8010E944B0B870153CF10E000E0EF
:1019200050CFFB01DC0102C001900D9241505040AC
:10193000D8F70895FC018191861721F08823D9F703
:10194000992708953197CF010895FB01DC0101909B
:0C1950000D920020E1F70895F894FFCFFD
:10195C0000004002800000000000F7011701440164
:10196C004402B5015301A7010D0A0020793A200069
:10197C00536574757020636F6D706C65746500577A
:10198C00616974696E6720666F7220696E70757418
:10199C002E2E2E0A466F726D61743A2028782C799F
:1019AC002900496E70757420783A2000436F6E766A
:0A19BC00657274656420783A20001B
:00000001FF
