:100000000C945D000C9485000C9485000C94850084
:100010000C9485000C9485000C9485000C9485004C
:100020000C9485000C9485000C9485000C94D203EC
:100030000C9485000C9485000C9485000C9485002C
:100040000C9430030C9485000C94A0030C947A0358
:100050000C9485000C9485000C9485000C9485000C
:100060000C9485000C94850000000008000201003B
:100070000003040700000000000000000000000072
:10008000250028002B0000000000240027002A0083
:10009000040404040404040402020202020203032E
:1000A0000303030301020408102040800102040836
:1000B00010200102040810208E0411241FBECFEF6F
:1000C000D8E0DEBFCDBF11E0A0E0B1E0ECE4F6E1A6
:1000D00002C005900D92AA31B107D9F721E0AAE13B
:1000E000B1E001C01D92A03FB207E1F710E0CDE5FD
:1000F000D0E004C02197FE010E94EB08CC35D10767
:10010000C9F70E9405050C94240B0C94000090E0A4
:10011000FC01EC55FF4F249180579F4FFC018491C7
:10012000882399F090E0880F991FFC01EA57FF4F50
:10013000A591B491FC01E458FF4F859194918FB73C
:10014000F894EC91E22BEC938FBF089590E0FC01C2
:10015000E859FF4F2491FC01EC55FF4F3491FC010D
:10016000E057FF4FE491EE23C9F0222339F023300A
:1001700001F1A8F4213019F1223029F1F0E0EE0F5D
:10018000FF1FE458FF4FA591B4918FB7F894EC91FD
:10019000611126C030953E233C938FBF08952730D0
:1001A000A9F02830C9F0243049F7809180008F7D74
:1001B00003C0809180008F7780938000DFCF84B56B
:1001C0008F7784BDDBCF84B58F7DFBCF8091B0006E
:1001D0008F778093B000D2CF8091B0008F7DF9CF20
:1001E0003E2BDACFAF92BF92CF92DF92EF92FF9287
:1001F0000F931F93CF93DF936C017B018B01040F4F
:10020000151FEB015E01AE18BF08C017D10759F0EA
:100210006991D601ED91FC910190F081E02DC6012C
:100220000995892B79F7C501DF91CF911F910F9126
:10023000FF90EF90DF90CF90BF90AF900895FC01BA
:10024000538D448D252F30E0842F90E0821B930B3B
:10025000541710F0CF96089501970895FC01918DE1
:10026000828D981761F0A28DAE0FBF2FB11D5D96E4
:100270008C91928D9F5F9F73928F90E008958FEF86
:100280009FEF08952FB7F89480912001909121015C
:10029000A0912201B09123012FBF80932C01909354
:1002A0002D01A0932E01B0932F0184E291E00E94D2
:1002B0002E0197FF26C02FB7F894809120019091CE
:1002C0002101A0912201B09123012FBF40912C0167
:1002D00050912D0160912E0170912F01841B950B7F
:1002E000A60BB70B409128015091290160912A017A
:1002F00070912B0184179507A607B707B0F28FEF0F
:100300009FEF0895FC01918D828D981731F0828DB9
:10031000E80FF11D858D90E008958FEF9FEF089510
:10032000FC01918D228D892F90E0805C9F4F821B74
:1003300091098F739927089584E291E00E949001BA
:1003400021E0892B09F420E0822F089580E090E0DD
:10035000892B29F00E949C0181110C9400000895C2
:10036000FC01A48DA80FB92FB11DA35ABF4F2C912A
:10037000848D90E001968F739927848FA689B78921
:100380002C93A089B1898C91837080648C93938D18
:10039000848D981306C00288F389E02D80818F7DBB
:1003A00080830895EF92FF920F931F93CF93DF9373
:1003B000EC0181E0888F9B8D8C8D98131AC0E889A1
:1003C000F989808185FF15C09FB7F894EE89FF8970
:1003D0006083E889F98980818370806480839FBF0E
:1003E00081E090E0DF91CF911F910F91FF90EF900E
:1003F0000895F62E0B8D10E00F5F1F4F0F7311271E
:10040000E02E8C8D8E110CC00FB607FCFACFE88958
:10041000F989808185FFF5CFCE010E94B001F1CF2F
:10042000EB8DEC0FFD2FF11DE35AFF4FF0829FB7CC
:10043000F8940B8FEA89FB8980818062CFCFCF93BC
:10044000DF93EC01888D8823B9F0AA89BB89E889FC
:10045000F9898C9185FD03C0808186FD0DC00FB6A2
:1004600007FCF7CF8C9185FFF2CF808185FFEDCF20
:10047000CE010E94B001E9CFDF91CF910895CF92D4
:10048000DF92EF92FF92CF93DF93EC01603282E034
:100490007807CCF5653B710514F064EB70E0898159
:1004A00028E830E0281B310987FD3395220F331FE0
:1004B000220F331F6901330FEE08FF088A8128E5F8
:1004C00032E0281B310987FD3395220F331F220F9D
:1004D000331F032E000C440B550B2C193D094E09FC
:1004E0005F09DB0177FF02C0B0E0A0E00E9468086E
:1004F00024EB30E040E050E00E943E08C20ED31EE4
:10050000E41EF51EB601E881EC3070F5298188E81B
:1005100090E0821B910927FD9395880F991F880F02
:10052000991F681779077CF02A8188E592E0821B81
:10053000910927FD9395880F991F880F991F6817B8
:1005400079070CF4CB010297880F991F4FB7F894E5
:100550002E2F30E0F901EE0FFF1FE20FF31FEF53D4
:10056000FE4F928381834FBFDF91CF91FF90EF9039
:10057000DF90CF900895892B79F41092800082E06B
:10058000809381001092850010928400B19A80912E
:100590006F00826080936F000895CF93DF93EC012A
:1005A00088819981009711F00E94C30919821882ED
:1005B0001D821C821B821A82DF91CF910895FC015B
:1005C00080819181009711F00C94C30908950F93D5
:1005D0001F93CF93DF93EC0188819981009759F0A5
:1005E0002A813B812617370730F081E0DF91CF91D8
:1005F0001F910F9108958B016F5F7F4F0E944C0AEE
:10060000009759F0998388831B830A832C813D814D
:10061000232B59F7FC011082E8CF80E0E7CFEF925F
:10062000FF920F931F93CF93DF93EC017B018A011D
:10063000BA010E94E70281110BC0CE010E94CD02D7
:10064000CE01DF91CF911F910F91FF90EF90089510
:100650001D830C83B701888199810E941D0BF0CF07
:100660001F920F920FB60F9211242F933F938F93E7
:100670009F93AF93BF938091200190912101A0910E
:100680002201B091230130911F0123E0230F2D3768
:1006900058F50196A11DB11D20931F0180932001E3
:1006A00090932101A0932201B093230180911B011B
:1006B00090911C01A0911D01B0911E010196A11DF8
:1006C000B11D80931B0190931C01A0931D01B09359
:1006D0001E01BF91AF919F918F913F912F910F90EC
:1006E0000FBE0F901F90189526E8230F0296A11DAC
:1006F000B11DD2CF1F920F920FB60F9211242F93DC
:100700003F934F935F936F937F938F939F93AF9399
:10071000BF93EF93FF9384E291E00E94B001FF91B9
:10072000EF91BF91AF919F918F917F916F915F9169
:100730004F913F912F910F900FBE0F901F901895E2
:100740001F920F920FB60F9211242F938F939F93A6
:10075000EF93FF93E0913401F09135018081E091B6
:100760003A01F0913B0182FD1BC0908180913D01D7
:100770008F5F8F7320913E01821741F0E0913D0120
:10078000F0E0EC5DFE4F958F80933D01FF91EF917E
:100790009F918F912F910F900FBE0F901F901895E2
:1007A0008081F4CF1F920F920FB60F9211242F93D6
:1007B0003F934F935F936F937F938F939F93AF93E9
:1007C000BF93CF93DF93EF93FF9380911A01C09172
:1007D000E501D0E087FF24C01092850010928400CC
:1007E00080911A018F5F80931A0180911A01082E5F
:1007F000000C990B8C179D0724F480911A018C3002
:10080000C4F18091840090918500049680349C49C5
:1008100008F47AC08091840090918500049676C097
:1008200080911A01082E000C990B8C179D07C4F6B5
:10083000E0911A018E2FEE0F990BFC01EE0FFF1FB6
:10084000E80FF91FEF53FE4F808186FFC9CFE0917B
:100850001A018E2FEE0F990BFC01EE0FFF1FE80F10
:10086000F91FEF53FE4F808160E08F730E94A60056
:10087000B7CF2091840030918500E0911A018E2F2E
:10088000EE0F990BFC01EE0FFF1FE80FF91FEF535E
:10089000FE4F81819281820F931F909389008093F4
:1008A0008800E0911A018E2FEE0F990BFC01EE0FDC
:1008B000FF1FE80FF91FEF53FE4F808186FF11C025
:1008C000E0911A018E2FEE0F990BFC01EE0FFF1F26
:1008D000E80FF91FEF53FE4F808161E08F730E9494
:1008E000A600FF91EF91DF91CF91BF91AF919F91C2
:1008F0008F917F916F915F914F913F912F910F90C9
:100900000FBE0F901F90189580E49CE9909389008A
:10091000809388008FEF80931A01E3CF1092270114
:100920001092260188EE93E0A0E0B0E080932801C9
:1009300090932901A0932A01B0932B018AE091E0C2
:10094000909325018093240185EC90E090933101F0
:100950008093300184EC90E09093330180933201D6
:1009600080EC90E0909335018093340181EC90E02D
:10097000909337018093360182EC90E09093390197
:100980008093380186EC90E090933B0180933A018C
:1009900010923D0110923E0110923F0110924001D1
:1009A0008091E5018C3048F591E0980F9093E50136
:1009B0008093E90190E0FC01EE0FFF1FE80FF91FA3
:1009C000EF53FE4F88EB9BE0928381838091E5019A
:1009D0008C30B8F491E0980F9093E5018093E60194
:1009E00090E0FC01EE0FFF1FE80FF91FEF53FE4FE1
:1009F00088EB9BE09283818308958FEF8093E901D8
:100A0000E5CF8FEF8093E6010895CF93DF93CDB7C5
:100A1000DEB762970FB6F894DEBF0FBECDBF7894F5
:100A200084B5826084BD84B5816084BD85B58260F3
:100A300085BD85B5816085BD80916E0081608093A4
:100A40006E0010928100809181008260809381000D
:100A5000809181008160809381008091800081601D
:100A6000809380008091B10084608093B100809178
:100A7000B00081608093B00080917A0084608093A0
:100A80007A0080917A00826080937A0080917A0067
:100A9000816080937A0080917A00806880937A00E8
:100AA0001092C100E0913401F091350182E0808321
:100AB000E0913001F09131011082E0913201F0912A
:100AC00033018FEC808310923C01E0913801F0916A
:100AD000390186E08083E0913601F0913701808111
:100AE00080618083E0913601F091370180818860D8
:100AF0008083E0913601F0913701808180688083A6
:100B0000E0913601F091370180818F7D8083809163
:100B1000E9018C3008F042C089E00E948700809192
:100B2000E901282F30E0F901EE0FFF1FE20FF31F5C
:100B3000EF53FE4F9081907C996090831092EA0170
:100B40001092EB012CE0622F0E94D808829FB00126
:100B5000112430E020E0AB01420F531FFA01EE0FE9
:100B6000FF1FE40FF51FEF53FE4F908196FD08C065
:100B70002F5F3F4F2C30310571F790E00E94BB0290
:100B8000E091E9018E2F90E0FC01EE0FFF1FE80FCE
:100B9000F91FEF53FE4F8081806480838091E601CE
:100BA0008C3008F042C08AE00E9487008091E60104
:100BB000282F30E0F901EE0FFF1FE20FF31FEF5374
:100BC000FE4F9081907C9A6090831092E701109282
:100BD000E8012CE0622F0E94D808829FB001112406
:100BE00030E020E0AB01420F531FFA01EE0FFF1F70
:100BF000E40FF51FEF53FE4F908196FD08C02F5F65
:100C00003F4F2C30310571F790E00E94BB02E0911C
:100C1000E6018E2F90E0FC01EE0FFF1FE80FF91F99
:100C2000EF53FE4F80818064808334EF832E9924BC
:100C30009394A12CB12C20E0222E20E0322E84E2CD
:100C400091E00E949001181619060CF058C11E86FA
:100C50001D86188A1F861A8A198A50E040E068E1CA
:100C600071E0CE010D960E940F030E94420197FD94
:100C70001EC089329105D9F089831A8209891A899F
:100C80000F5F1F4FB801CE010D960E94E702882327
:100C900061F32D853E8589899A89BE016F5F7F4FFB
:100CA000820F931F0E941D0B1A8B098BDECF1886B3
:100CB0001F821A8619861C861B866D857E856115A6
:100CC000710531F049895A89CE0107960E940F03B8
:100CD0008B859C85892B09F41EC10F8118856CE2D8
:100CE00070E0C8010E94120B009709F414C19C0126
:100CF000201B310B8901CC24C394D12C0115110583
:100D000021F4D12CC12C01E010E01A8219821C823E
:100D10001B821E821D8250E040E068E171E0CE013E
:100D200001960E940F03EB84FC84CE14DF0420F5AF
:100D30000E151F0508F47801EF81F885EE0DFF1DF3
:100D4000108110826F8178856C0D7D1D6115710594
:100D500009F4E4C0FB0101900020E9F73197AF01ED
:100D6000461B570BCE0101960E940F038F81988579
:100D7000E80EF91EF701108389819A81009709F422
:100D8000D2C00E949C072B01CE0101960E94DF0277
:100D9000CE0107960E94DF0218861F821A861986E6
:100DA0001C861B866D857E856115710531F049892C
:100DB0005A89CE0107960E940F030B851C850115E9
:100DC000110561F0CF80D88469E270E0C6010E940D
:100DD000120B7C01EC18FD08892B19F4EE24EA941F
:100DE000FE2C6701012B61F06F8078846CE270E06B
:100DF000C3010E94120B8C0106191709892B11F4EB
:100E00000FEF1FEF0F5F1F4FE016F10628F4902F32
:100E1000812F8701C92ED82E1A8219821C821B822B
:100E20001E821D8250E040E068E171E0CE01019633
:100E30000E940F03EB84FC840E151F0520F5CE14D1
:100E4000DF0408F47601EF81F885EE0DFF1DD080F8
:100E500010826F817885600F711F6115710509F42B
:100E600066C0FB0101900020E9F73197AF01461BF6
:100E7000570BCE0101960E940F038F819885E80ED3
:100E8000F91EF701D08289819A81C12CD12C76017B
:100E9000009719F00E949C076B01CE0101960E94F9
:100EA000DF02CE0107960E94DF0224EB30E0D20180
:100EB0000E94E408A50194010E943E08CA01B901FC
:100EC0000E94DA070E94F10889EE91E00E943F0239
:100ED000D60124EB30E00E94E408A50194010E94B1
:100EE0003E08CA01B9010E94DA070E94F10886EEA5
:100EF00091E00E943F02CE010D960E94DF02211474
:100F0000310409F49CCE0E949C01882309F493CEFD
:100F10000E94000090CE0FEF1FEFEDCECE010196A4
:100F20000E94CD0223CF60E070E0CB012CCFCE0138
:100F300001960E94CD02A1CF1F93FC01992788271B
:100F4000BC01E89411911032E9F3193010F01E3011
:100F5000C8F31B3251F01D3249F4689406C00E9458
:100F6000C307610F711D811D911D119110531A301E
:100F7000B0F33EF490958095709561957F4F8F4FBB
:100F80009F4F1F910895592F482F372F262F660FF7
:100F9000771F881F991F660F771F881F991F620F81
:100FA000731F841F951F660F771F881F991F089551
:100FB000E89409C097FB3EF49095809570956195F3
:100FC0007F4F8F4F9F4F9923A9F0F92F96E9BB27A9
:100FD0009395F695879577956795B795F111F8CF25
:100FE000FAF4BB0F11F460FF1BC06F5F7F4F8F4F90
:100FF0009F4F16C0882311F096E911C0772321F086
:101000009EE8872F762F05C0662371F096E8862F1D
:1010100070E060E02AF09A95660F771F881FDAF774
:10102000880F9695879597F9089557FD9058440F26
:10103000551F59F05F3F71F04795880F97FB991F37
:1010400061F09F3F79F087950895121613061406F4
:10105000551FF2CF4695F1DF08C016161706180681
:10106000991FF1CF86957105610508940895E8945C
:10107000BB2766277727CB0197F90895052E97FBA5
:101080001EF400940E94550857FD07D00E94A7083F
:1010900007FC03D04EF40C945508509540953095BC
:1010A00021953F4F4F4F5F4F0895909580957095D4
:1010B00061957F4F8F4F9F4F08950E94C908A59F4C
:1010C000900DB49F900DA49F800D911D1124089543
:1010D000B7FF0C945D080E945D08821B930B089576
:1010E0002F923F924F925F926F927F928F929F9238
:1010F000AF92BF92CF92DF92EF92FF920F931F9326
:10110000CF93DF93CDB7DEB7CA1BDB0B0FB6F894D6
:10111000DEBF0FBECDBF09942A88398848885F8416
:101120006E847D848C849B84AA84B984C884DF8087
:10113000EE80FD800C811B81AA81B981CE0FD11D6B
:101140000FB6F894DEBF0FBECDBFED010895A1E24A
:101150001A2EAA1BBB1BFD010DC0AA1FBB1FEE1F31
:10116000FF1FA217B307E407F50720F0A21BB30B7C
:10117000E40BF50B661F771F881F991F1A9469F7F8
:1011800060957095809590959B01AC01BD01CF0154
:101190000895A29FB001B39FC001A39F700D811D50
:1011A0001124911DB29F700D811D1124911D089570
:1011B000991B79E004C0991F961708F0961B881FA9
:1011C0007A95C9F7809508950E94C908B7FF0895D8
:1011D000821B930B0895EE0FFF1F0590F491E02DF5
:1011E00009940E94F8086894B1110C943808089585
:1011F0000E941D0888F09F5798F0B92F9927B75182
:10120000B0F0E1F0660F771F881F991F1AF0BA95AA
:10121000C9F714C0B13091F00E943708B1E00895C9
:101220000C943708672F782F8827B85F39F0B93FBB
:10123000CCF3869577956795B395D9F73EF490955D
:101240008095709561957F4F8F4F9F4F08950F93B5
:101250001F93CF93DF938230910510F482E090E0EA
:10126000E091EE01F091EF0130E020E0B0E0A0E08D
:10127000309799F42115310509F44AC0281B390B20
:1012800024303105D8F58A819B816115710589F17A
:10129000FB0193838283FE0111C040815181028151
:1012A000138148175907E0F04817590799F4109728
:1012B00061F012960C93129713961C933296CF01FD
:1012C000DF91CF911F910F9108950093EE0110933C
:1012D000EF01F4CF2115310551F04217530738F0D3
:1012E000A901DB019A01BD01DF01F801C1CFEF01C6
:1012F000F9CF9093EF018093EE01CDCFFE01E20F85
:10130000F31F819391932250310939832883D7CFDA
:101310002091EC013091ED01232B41F42091020149
:10132000309103013093ED012093EC0120910001F5
:10133000309101012115310541F42DB73EB740919F
:10134000040150910501241B350BE091EC01F09153
:10135000ED01E217F307A0F42E1B3F0B2817390706
:1013600078F0AC014E5F5F4F2417350748F04E0F01
:101370005F1F5093ED014093EC01819391939FCFB8
:10138000F0E0E0E09CCFCF93DF930097E9F0FC0121
:10139000329713821282A091EE01B091EF01ED011C
:1013A00030E020E01097A1F420813181820F931F5B
:1013B0002091EC013091ED012817390709F061C047
:1013C000F093ED01E093EC01DF91CF910895EA01F4
:1013D000CE17DF07E8F54A815B819E014115510573
:1013E000B1F7E901FB83EA8349915991C40FD51FF5
:1013F000EC17FD0761F4808191810296840F951F9F
:10140000E90199838883828193819B838A83F0E0B9
:10141000E0E012968D919C9113970097B9F52D916C
:101420003C911197CD010296820F931F2091EC0100
:101430003091ED012817390739F6309751F51092A0
:10144000EF011092EE01B093ED01A093EC01BCCF3F
:10145000D383C28340815181840F951FC817D90758
:1014600061F44E5F5F4F88819981480F591F518306
:1014700040838A819B81938382832115310509F002
:10148000B0CFF093EF01E093EE019ECFFD01DC01C0
:10149000C0CF13821282D7CFB0E0A0E0E2E5FAE03D
:1014A0000C9472088C01009751F4CB010E9427091B
:1014B0008C01C801CDB7DEB7E0E10C948E08FC01C9
:1014C000E60FF71F9C0122503109E217F30708F4D9
:1014D0009DC0D901CD91DC911197C617D70798F01F
:1014E000C530D10530F3CE0104978617970708F36E
:1014F000C61BD70B2297C193D1936D937C93CF01D9
:101500000E94C309D6CF5B01AC1ABD0A4C018C0EF8
:101510009D1EA091EE01B091EF01512C412CF12CB8
:10152000E12C109731F58091EC019091ED01881537
:10153000990509F05CC04616570608F058C080911E
:10154000000190910101009741F48DB79EB7409141
:10155000040150910501841B950BE817F90708F069
:1015600055C0F093ED01E093EC01F90171836083C4
:10157000A0CF8D919C91119712966C901297139613
:101580007C901397A815B90559F56C0142E0C40E7B
:10159000D11CCA14DB0420F1AC014A195B09DA0141
:1015A0001296159780F06282738251834083D9012D
:1015B0006D937C93E114F10471F0D7011396FC93C1
:1015C000EE93129776CF22968C0F9D1FF90191838F
:1015D0008083F301EFCFF093EF01E093EE0169CF49
:1015E0004816590608F42C017D01D3019ACFCB018E
:1015F0000E9427097C01009749F0AE01B8010E94C2
:10160000090BC8010E94C309870153CF10E000E015
:1016100050CFFB01DC0102C001900D9241505040BF
:10162000D8F70895FC018191861721F08823D9F716
:10163000992708953197CF010895FB01DC010190AE
:0C1640000D920020E1F70895F894FFCF10
:10164C000000F001800000000000D201F2001F0138
:0A165C001F0290012E018201000020
:00000001FF
